:020000040800F2
:10000000D0970020DD010008291000082B100008FF
:100010002D1000082F10000831100008000000000B
:100020000000000000000000000000004501000882
:100030003310000800000000890100083510000896
:10004000F7010008F7010008F7010008F7010008B0
:10005000F7010008F7010008F7010008F7010008A0
:10006000F7010008F7010008F7010008F701000890
:10007000F7010008F7010008F7010008F701000880
:10008000F7010008F7010008F7010008F701000870
:10009000F7010008F7010008F7010008F701000860
:1000A000F7010008F7010008F7010008F701000850
:1000B000F7010008F7010008F7010008F701000840
:1000C000F7010008F7010008F7010008F701000830
:1000D000F701000849100008F7010008F7010008BF
:1000E000F7010008F7010008F7010008F701000810
:1000F000F7010008F7010008F7010008F701000800
:10010000F7010008F7010008F7010008F7010008EF
:10011000F7010008F7010008F7010008F7010008DF
:10012000F7010008F7010008F7010008F7010008CF
:10013000DFF80CD002F056FF00480047770E0008A9
:10014000D0970020224B19680868B0E8F00F80F3C0
:100150000988BFF36F8F4FF0000080F311884EF0D5
:100160000D0E70470000000006480068006880F32C
:10017000088862B661B6BFF34F8FBFF36F8F00DFA1
:1001800000BF00BF08ED00E0EFF30980BFF36F8F01
:100190000F4B1A6820E9F00F106008B54FF05000BF
:1001A00080F31188BFF34F8FBFF36F8F02F046F8D3
:1001B0004FF0000080F31188BDE808401968086816
:1001C000B0E8F00F80F30988BFF36F8F704700BF6E
:1001D00038000020EFF30580704700000648804794
:1001E00006480047FEE7FEE7FEE7FEE7FEE7FEE71C
:1001F000FEE7FEE7FEE7FEE7A9020008310100087E
:100200000CB50022019200925248016841F48031FD
:1002100001604FF4A063016801F40031009101997D
:10022000491C0191009911B901999942F3D10168D2
:10023000890302D50121009100E000920099012973
:1002400030D145490A6842F010020A600A6822F07B
:1002500003020A600A6842F002020A6041684160D3
:1002600041684160416841F480614160416821F426
:100270007C114160416841F4E8114160016841F03E
:100280008071016001688901FCD5416821F003019A
:100290004160416841F0020141604168C1F3810160
:1002A0000229FAD10CBDABE710B52A48016841F02C
:1002B000010101604168294A114041600168284AF2
:1002C00011400160016821F480210160416821F43E
:1002D000FE0141604FF41F018160FFF7E4FF2149F7
:1002E0004FF00060086010BD10B51A4A506800F069
:1002F0000C011D4B1D4800290ED004290ED00829E1
:100300000ED003605168194AC1F30311121D515CEC
:100310000268CA40026010BD0360F3E70360F1E7C2
:10032000516801F47011536803F48033022404EB24
:10033000914133B153689B0307D50D4B594301607D
:10034000E0E70B4B59430160DCE7074B5943016081
:10035000D8E7000000100240002002400000FFF833
:10036000FFFFF6FE08ED00E000127A00000000201A
:1003700000093D002A4908432A490860704770B5C2
:100380000F23C27801260178002A1ED0254A126860
:1003900002F4E062C2F5E062120AC2F10404D34042
:1003A0004578A54082781A402A43120101F1E021E4
:1003B00081F80024007800F01F018E404009800081
:1003C00000F1E020C0F8006170BD01F01F00864020
:1003D0004809800000F1E020C0F8806170BD124A39
:1003E000114001430F48001F016070470D4A121D64
:1003F000002903D0116801431160704711688143DF
:10040000116070474FF0E021042804D0086920F003
:10041000040008617047086940F0040008617047F3
:100420000000FA050CED00E080FFFF1F10B59C49AD
:10043000884209D10121042000F07DFA0021BDE8A5
:100440001040042000F077BA9649884209D1012172
:10045000082000F070FA0021BDE81040082000F0EC
:100460006ABA9149884209D10121102000F063FA4B
:100470000021BDE81040102000F05DBA8B49884291
:1004800009D10121202000F056FA0021BDE81040DA
:10049000202000F050BA8649884209D1012140202D
:1004A00000F049FA0021BDE81040402000F043BAB6
:1004B0008049884209D10121802000F03CFA0021C6
:1004C000BDE81040802000F036BA7B4988420AD14E
:1004D00084150121204600F02EFA2046BDE8104088
:1004E000002100F028BA10BD10B50121084600F027
:1004F00022FA0021BDE81040012000F01CBA2DE9CD
:10050000F0410022CC7804F00F03E40601D58C788A
:1005100023430C784FF00F0714F0FF0F4FF0010C3E
:100520001CD005680CFA02F40E882640A64211D1B0
:10053000960007FA06F825EA080503FA06F848EADD
:100540000505CE78282E02D0482E02D002E0446164
:1005500000E00461521C082AE4D305600A88FF2ADF
:100560001ED94568002202F108060CFA06F40E882E
:100570002640A64210D1960007FA06F825EA08059B
:1005800003FA06F848EA0505CE78282E00D1446122
:10059000CE78482E00D10461521C082AE3D345606E
:1005A000BDE8F0814FF6FF710180022181700421C6
:1005B000C17070470246002092680A4200D00120B4
:1005C0007047806880B2704702460020D2680A42B5
:1005D00000D001207047C06880B270470161704749
:1005E00041617047002A01D0016170474161704745
:1005F000C160704741F480328261816182618169AA
:100600008069704710B52D4B1A684FF680742240F0
:1006100042EA00100843186010BD2949C8617047BC
:10062000F0B5264C002801DAE36900E06368C0F306
:100630000346420D120185B2C0F301579540032FC6
:1006400007D0C2020CD50322B240934343F070623C
:1006500009E023F07062636823F07063636002E076
:10066000AB4343F0706201B12A43002801DAE26132
:10067000F0BD6260F0BD10B58A07120F0F239340E2
:1006800021F003040D4921448C689C438C608B68E5
:10069000904003438B6010BD0949DC31086070470E
:1006A00000080140000C014000100140001401400E
:1006B00000180140001C01400020014000000140E2
:1006C00000002042B448016841F001010160416826
:1006D000B24A114041600168B14A114001600168AD
:1006E00021F480210160416821F4FE0141604FF452
:1006F0001F0181607047A8490A6822F480320A60AD
:100700000A6822F480220A60B0F5803F07D0B0F575
:10071000802F03D1086840F4A02008607047086863
:1007200040F48030086070470346002059099A4A17
:1007300001290AD002290AD0516A03F01F020123BD
:1007400093400B4200D0012070471168F5E7116A11
:10075000F3E718B5002000904FF4A0643120FFF7B4
:10076000E3FF0099491C00910099A14201D00028A3
:10077000F4D03120FFF7D8FF08B1012018BD0020C8
:1007800018BD854A116821F0F80141EAC0001060E7
:1007900070478449086070477F4B5A6822F47C1286
:1007A00008431043586070477E49086670477A4A8C
:1007B000516821F003010143516070477648406859
:1007C00000F00C007047744A516821F0F0010143B9
:1007D00051607047704A516821F4E06101435160F3
:1007E00070476D4A516821F4605141EAC000506081
:1007F0007047694A002903D0517A0143517270470A
:10080000517A8143517270476649D8310860704708
:10081000614A516821F440410143516070475E498B
:10082000002220310A7001F82029012805D004286F
:1008300002D1052081F820007047012081F82000B6
:10084000704759490860704753490A6A02430A626F
:100850007047554944390860704710B54E4A516891
:1008600001F00C01514B002927D0042927D0082979
:1008700027D00360516801F0F00109094C4B5C5C22
:100880000168E1404160546804F4E064240A1C5D9E
:1008900021FA04F48460546804F46054E40A1B5D93
:1008A000D940C160526802F44042920B404B1B1F7A
:1008B0009A5CB1FBF2F1016110BD0360DAE70360FD
:1008C000D8E7516801F47011536803F480330224AF
:1008D00004EB914133B153689B0307D5354B594322
:1008E0000160C7E7334B59430160C3E72F4B5943BE
:1008F0000160BFE7284A002903D0516901435161D3
:1009000070475169814351617047234A002903D0E0
:100910009169014391617047916981439161704789
:100920001D4A002903D0D1690143D1617047D169C3
:100930008143D1617047184A002903D0D16801432F
:10094000D1607047D1688143D1607047124A002955
:1009500003D011690143116170471169814311612D
:10096000704711494039086070470E49C8647047A4
:100970000949C87170470848416A41F08071416275
:10098000704701460020044A92680A4200D00120C4
:100990007047014988727047001002400000FFF85C
:1009A000FFFFF6FE000042428004424200127A003D
:1009B0001800002000093D0010B5E14988420AD125
:1009C00001218C032046FFF7B6FF2046BDE810400A
:1009D0000021FFF7B0BFDB4988420AD101214C0456
:1009E0002046FFF7B3FF2046BDE810400021FFF787
:1009F000ADBFD54988420AD101218C042046FFF7BA
:100A0000A5FF2046BDE810400021FFF79FBFCF495A
:100A100088420AD10121CC042046FFF797FF2046E7
:100A2000BDE810400021FFF791BFC94988420AD1B3
:100A300001210C052046FFF789FF2046BDE8104044
:100A40000021FFF783BF10BD30B585B004460D46C9
:100A5000208A4CF6FF710840E98801432182A08971
:100A60004EF6F3110840A9882A8911436A89024386
:100A70001143A181A08A4FF6FF410840A989014393
:100A8000A1826846FFF7E9FEAD48844201D1039890
:100A900000E00298A189090408D500EBC00101EB30
:100AA000001029684900B0FBF1F007E000EBC0013D
:100AB00001EB001029688900B0FBF1F06422B0FB63
:100AC000F2F109010B096FF018056B4300EB83008D
:100AD000A3891D044FF0320307D503EBC000B0FB20
:100AE000F2F000F00700084306E003EB0010B0FB53
:100AF000F2F000F00F000843208105B030BD4FF444
:100B00001651016000218180C18001810C22428147
:100B10008181704710B5038A4FF2FF0213400A88A3
:100B20004C8822438C88C9880C4322431A43028292
:100B300010BD0021018041808180C1807047002963
:100B400004D0818941F4005181817047818921F469
:100B500000518181704710B540F66A13C1F342130A
:100B600001F01F040121A140012B07D0022B07D067
:100B700014303AB102680A43026010BD0C30F8E745
:100B80001030F6E702688A43026010BD002A03D0E5
:100B9000828A0A4382827047828A8A4382827047AD
:100BA000028A22F00F020282028A0A4302827047FE
:100BB000828922F40062828182890A43828170479D
:100BC000002904D0818941F0020181817047818927
:100BD00021F0020181817047028A22F02002028204
:100BE000028A0A4302827047002904D0018A41F434
:100BF000804101827047018A21F48041018270475F
:100C0000C1F30801818070478088C0F308007047F5
:100C1000818941F0010181817047028BD2B2028348
:100C2000028B42EA012101837047028B02F47F426A
:100C30000283028B0A4302837047002904D0818A11
:100C400041F0200181827047818A21F02001818258
:100C50007047002904D0818A41F0100181827047D9
:100C6000818A21F0100181827047002904D0818A95
:100C700041F0080181827047818A21F00801818258
:100C80007047002904D0818941F400418181704777
:100C90008189C1F30E0181817047002904D0818AC6
:100CA00041F4006181827047818A21F40061818270
:100CB0007047828A22F004028282828A0A438282F8
:100CC0007047002904D0818A41F002018182704777
:100CD000818A21F002018182704702460020128839
:100CE0000A4200D0012070478A05C943018070473D
:100CF00070B5002440F66A12C1F3421301F01F05DB
:100D0000012606FA05F2012B0CD0022B0DD0838AA6
:100D10001340090A8E40008830400BB100B1012415
:100D2000204670BD83891340F3E7038A1340F0E740
:100D300040F66A120A0A01219140C94301807047B6
:100D4000003801400044004000480040004C004092
:100D50000050004010B54FF44070FFF70BFB00F05F
:100D600075F900F04FFABDE8104000F09FB908B5E2
:100D70004C4C4FF0FF3500232A466946E06800F0EE
:100D800014FD0146012903D047A002F05DF9F2E706
:100D90004DA0009902F058F9EDE71CB50120019033
:100DA000022000904E4D4F4F3E4C06030121284635
:100DB00000F041FA01280DD14BA002F045F90023C3
:100DC0001A4601A9E06800F06FFB012802D14CA08F
:100DD00002F03AF93146384600F02DFA01280DD1DB
:100DE0004EA002F031F900231A466946E06800F08F
:100DF0005BFB012802D14FA002F026F9142001F07C
:100E00004DF9D3E77CB502F01DF804210022084615
:100E100000F0B8FA234CE0600221201DCDE900105B
:100E20000D0200232A464AA14D4800F045FF012843
:100E300019D04CA002F008F91A4803210830CDE976
:100E4000001000232A464EA1504800F035FF01282B
:100E50000DD04FA002F0F8F8206800F076FFBDE852
:100E60007C4002F009B850A002F0EEF8E4E755A08B
:100E700002F0EAF8F0E71CB5FFF76CFF57A002F0AC
:100E8000E3F808480121CDE900104A02002361A1DE
:100E9000644800F011FF10B101F01DFBFEE70120D6
:100EA0001CBD000028000020CAFDBEDDBDD3CAD590
:100EB000B3F6B4ED2CB4EDCEF3B4FAC2EB3A203075
:100EC00078256C780A000000B1BEB4CEBDD3CAD577
:100ED000B5BDB5C4CAFDBEDDCAC725640A000000A1
:100EE0000008014000100140B7A2CBCDCFFBCFA23C
:100EF00073656E645F64617461310D0A0000000007
:100F0000CFFBCFA273656E645F6461746131B7A279
:100F1000CBCDB3C9B9A6210A0A000000B7A2CBCD38
:100F2000CFFBCFA273656E645F64617461320D0A9A
:100F300000000000CFFBCFA273656E645F64617434
:100F40006132B7A2CBCDB3C9B9A6210A0A0000000D
:100F5000526563656976655F5461736B00000000DC
:100F60006F0D0008526563656976655F5461736B48
:100F7000C8CECEF1B4B4BDA8CAA7B0DC0D0A00003B
:100F800053656E645F5461736B0000009B0D000835
:100F900053656E645F5461736BC8CECEF1B4B4BD5B
:100FA000A8CAA7B0DC0D0A00526563656976655F63
:100FB0005461736BC8CECEF1B4B4BDA8B3C9B9A6A1
:100FC0000D0A000053656E645F5461736BC8CECE2A
:100FD000F1B4B4BDA8B3C9B9A60D0A00D5E2CAC719
:100FE000D2BBB8F6BBF9D3DA53544D333246313065
:100FF00033B5C44672656552544F53CFB5CDB3B5C2
:10100000C4CFFBCFA2B6D3C1D0B5C4B2E2CAD421FB
:101010000D0A00004170705461736B437265617416
:1010200065000000050E00087047FEE7FEE7FEE7DA
:10103000FEE7704710B501F0A8FB012803D0BDE81A
:10104000104001F02CBF10BD7047000038B50121E1
:101050000820FFF75AFC2020ADF8000010208DF882
:10106000030003208DF802000F4C69462046FFF76D
:1010700046FA0121ADF8001069462046FFF73FFA15
:101080000221ADF8001069462046FFF738FA20210A
:101090002046FFF7A3FA01212046FFF79FFA02211D
:1010A0002046FFF79BFA38BD000C014010B586B012
:1010B00001210420FFF729FC01218803FFF725FC0B
:1010C0004FF40070ADF8140018208DF817000320BD
:1010D0008DF81600494C05A92046FFF710FA211596
:1010E000ADF8141004218DF8171005A92046FFF75C
:1010F00006FA4FF4E13001900020ADF80800ADF899
:101100000A00ADF80C00ADF810000C20ADF80E0090
:101110003B4C01A92046FFF797FC01212046FFF731
:101120000EFD06B010BD10B504462046FFF768FD61
:1011300080212046FFF7D1FD0028F9D010BD2DE910
:10114000F04107460D461646002405E0295D384665
:10115000FFF7E9FF641CE4B2B442F7D340213846FC
:10116000FFF7BBFD0028F9D0BDE8F08170B5064659
:101170000D4600243046295DFFF7D5FF641C285D2D
:101180000028F7D140213046FFF7A7FD0028F9D00D
:1011900070BD70B50546080ACCB201462846FFF777
:1011A0002FFD80212846FFF798FD0028F9D0214621
:1011B0002846FFF725FD80212846FFF78EFD0028F1
:1011C000F9D070BD70B504460D4DE1B22846FFF769
:1011D00017FD80212846FFF780FD0028F9D0204622
:1011E00070BD10B5064C20212046FFF776FD002883
:1011F000F9D02046BDE81040FFF706BD00080140C9
:101200000038014038B501211420FFF77EFB012092
:10121000ADF8000004248DF8034069460F48FFF73D
:101220006EF9E002ADF800008DF8034069460C4805
:10123000FFF765F938BD70B504460D4629462046CE
:10124000FFF7B8F9012801D0002070BD29462046DB
:10125000FFF7B0F90128F9D0012070BD0008014066
:101260000010014000F1080141604FF0FF32826040
:10127000C160016100210160704700210161704778
:1012800042684A6093688B60936859609160086116
:101290000168491C0160704730B50C68621C02D0BF
:1012A00000F1080202E0026904E01A4653681D6872
:1012B000A542FAD953684B6099608A605160086111
:1012C0000168491C016030BD0169D0E901329A60B2
:1012D000D0E901235A604A68824201D182684A609B
:1012E000002202610868401E0860704770B504461D
:1012F0000D46002C05D140F21B12F8A1FEA001F012
:10130000A3FE01F09FFDD4E90F20216802FB00112C
:1013100061600021A1632168A160E06B2268216CFB
:10132000401E00FB0121E1604FF0FF3084F84400D3
:1013300084F8450004F110004DB1FFF793FF04F16C
:101340002400FFF78FFF01F097FD012070BD216998
:101350000029F8D001F059F90028F4D0EA494FF0FB
:1013600080500860BFF34F8FBFF36F8FEBE70346EA
:101370000098002904D00260C36301640121B5E72D
:101380000060F9E7F8B505460E461746002D05D171
:101390004FF4C472D1A1D8A001F056FE86B105FB6E
:1013A00006F0483001F023FC04463CB104F1480249
:1013B0003B46314628460094FFF7D9FF2046F8BD4A
:1013C0000020EEE72DE9F041044601F03BFD94F9E1
:1013D000455004F1240609E0606A48B1304601F046
:1013E00014F908B101F0CDF96D1E6DB2002DF3DCDA
:1013F0004FF0FF3684F8456001F03EFD01F022FD1C
:1014000094F9445004F1100709E0206948B13846C6
:1014100001F0FBF808B101F0B4F96D1E6DB2002DBA
:10142000F3DC84F84460BDE8F04101F025BD10B55F
:10143000044601F007FDA06BE16B884201D1012455
:1014400000E0002401F018FD204610BD2DE9F04118
:10145000044617460026A56B226C002A1FD07FB1D8
:10146000E06801F07BFDE168206C091AE160226808
:10147000914202D26168081AE060022F0DD00EE09E
:10148000A06801F06BFD216CA0680844A060616851
:10149000884204D32068A06001E005B16D1E6D1C78
:1014A000A5633046BDE8F0812DE9FF4782B00446D0
:1014B0008A461E460025002C05D140F2D92287A17C
:1014C0008DA001F0C1FDBAF1000F07D1206C28B149
:1014D00040F2DA2281A188A001F0B6FD022E08D1E7
:1014E000E06B012805D040F2DB227CA182A001F054
:1014F000ABFD01F04AF938B9049828B140F2DE2278
:1015000076A17DA001F0A0FD4FF000094FF08057BB
:10151000DFF8F48101F096FCA06BE16B884205D303
:10152000022E03D0049808B325B327E03246514673
:101530002046FFF78BFF616A59B104F1240001F0E6
:1015400064F868B1C8F80070BFF34F8FBFF36F8FB6
:1015500006E028B1C8F80070BFF34F8FBFF36F8F5C
:1015600001F08AFC012006B0BDE8F08701F084FCA0
:101570000020F8E7684601F0BAF8012501F07CFC8C
:1015800000F03FFD01F05EFC94F94400401C01D1E5
:1015900084F8449094F94500401C01D184F84590AA
:1015A00001F06AFC04A9684601F0B3F830B12046A6
:1015B000FFF708FF00F076FC0020D4E72046FFF795
:1015C00036FF90B104F11000049900F0DEFF2046D0
:1015D000FFF7F8FE00F066FC00289BD1C8F8007009
:1015E000BFF34F8FBFF36F8F94E72046FFF7EAFEFC
:1015F00000F058FC8EE72DE9F047044689469046F6
:101600001F46002C05D140F29F3234A13AA001F0D0
:101610001BFDB9F1000F07D1206C28B14FF468729F
:101620002EA135A001F010FD022F08D1E06B01289A
:1016300005D040F2A13229A12FA001F005FD01F053
:1016400042FC5020EFF3118680F31188BFF34F8FD7
:10165000BFF36F8FA06BE16B884205D3022F03D0DD
:10166000002086F311887FE794F945503A464946B1
:101670002046FFF7EBFE681C04D06D1C84F8455033
:101680000120EEE7606A0028FAD004F1240000F09F
:10169000BCFF0028F4D0B8F1000FF1D00120C8F849
:1016A0000000EDE770B504460E46002C05D140F26F
:1016B0003C420AA110A001F0C7FC206C28B14FF4F5
:1016C000886206A10CA001F0BFFC206800BB606826
:1016D000F0B140F2454201A107A017E02E2E5C2E8A
:1016E0002E5C4672656552544F535C7372635C7135
:1016F000756575652E6300004572726F723A2573C9
:101700002C25640D0A00000004ED00E001F09CFCB3
:1017100001F0D9FB5020EFF3118580F31188BFF35E
:101720004F8FBFF36F8FA26BE06B904218D994F983
:101730004500521CA263411C04D0401C84F84500A3
:1017400001200EE0606A0028FAD004F1240000F0C5
:101750005CFF0028F4D0002EF2D001203060EFE7CB
:10176000002085F3118870BD10B5044601F06AFBB6
:10177000A06B20B1002401F07FFB204610BD0124A6
:10178000F9E730B40B46026C002A0CD0C168114452
:10179000C1604468A14201D30168C160C16830BC26
:1017A000184601F0DBBB30BC70472DE9FF4F83B01A
:1017B00004468A469B460026002C07D140F2DC42B4
:1017C000AFF2E801AFF2D00001F03EFCBAF1000F39
:1017D00009D1206C38B140F2DD42AFF20011AFF216
:1017E000E80001F031FC00F0D0FF48B9059838B1AD
:1017F0004FF49C62AFF21C11AFF2041001F024FC14
:101800004FF000094FF08057DFF8588301F01AFBC2
:10181000A56B6DB3E66851462046FFF7B2FFBBF1FA
:10182000000F13D0E660606A50B104F1240000F0AC
:10183000ECFE28B1C8F80070BFF34F8FBFF36F8F75
:1018400001F01AFB012007B0BDE8F08F6D1EA56303
:1018500020690028F4D004F1100000F0D6FE002822
:10186000EED0C8F80070BFF34F8FBFF36F8FE7E77C
:10187000059808B126B107E001F0FEFA0020E2E782
:1018800001A800F034FF012601F0F6FA00F0B9FBE0
:1018900001F0D8FA94F94400401C01D184F8449036
:1018A00094F94500401C01D184F8459001F0E4FA18
:1018B00005A901A800F02DFF58B12046FFF782FDD1
:1018C00000F0F0FA2046FFF74FFF00289ED00020DE
:1018D000B9E72046FFF748FF90B104F124000599CD
:1018E00000F053FE2046FFF76DFD00F0DBFA002804
:1018F0008CD1C8F80070BFF34F8FBFF36F8F85E7AF
:101900002046FFF75FFD00F0CDFA7FE72DE9F047B5
:10191000044689469046002C07D14FF4B462AFF2DA
:101920004421AFF22C2001F08FFBB9F1000F09D157
:10193000206C38B140F2A152AFF26021AFF24820E2
:1019400001F082FB01F0BFFA5020EFF3118780F322
:101950001188BFF34F8FBFF36F8FA66BF6B194F969
:10196000445049462046FFF70CFF761EA663681CCC
:1019700004D06D1C84F84450012010E02069002838
:10198000FAD004F1100000F040FE0028F4D0B8F1C5
:10199000000FF1D00120C8F80000EDE7002087F328
:1019A0001188E1E52DE9F04104460F46002C07D1EE
:1019B00040F2FC52AFF2DC21AFF2C42001F044FB54
:1019C0004FB9206C38B140F2FD52AFF2F021AFF2C6
:1019D000D82001F039FB206C38B940F2FE52AFF24A
:1019E0000431AFF2EC2001F02FFB01F06CFA502033
:1019F000EFF3118580F31188BFF34F8FBFF36F8F23
:101A0000A06B38B1E66839462046FFF7BAFEE660BB
:101A1000012000E0002085F3118843E510B504465D
:101A2000002C07D140F22F62AFF25031AFF23830C4
:101A300001F00AFB01F006FAA46B01F01DFA204642
:101A400010BD10B50446002C07D140F24162AFF240
:101A50007431AFF25C3001F0F7FA01F0F3F9D4E938
:101A60000E10441A01F008FA204610BD10B50446C5
:101A7000002C07D140F25162AFF2A031AFF28830B2
:101A800001F0E2FAA06B10BD0021374A02EBC1035E
:101A90005B68834206D1002042F8310002EBC101AD
:101AA00048607047491C0A29F0D3704710B50446B6
:101AB000002C07D140F25D62AFF2E031AFF2C830E6
:101AC00001F0C2FA2046FFF7DFFF2046BDE81040D4
:101AD00001F0F4B810B50446002C07D140F293721F
:101AE000AFF20841AFF2F03001F0AEFAA06B08B1EE
:101AF000002010BD012010BD10B50446002C07D1F8
:101B000040F2BA72AFF22C41AFF2144001F09CFAED
:101B1000A06BE16B884201D1012010BD002010BDF7
:101B200010B50022104B53F832401CB1521C0A2A47
:101B3000F9D310BD43F8321003EBC201486010BD69
:101B400010B500240021084A02EBC1035B68834200
:101B500002D152F8314002E0491C0A29F4D3204650
:101B600010BD000004ED00E09C00002070B50024D2
:101B7000FB4D04EB840005EB8000FFF773FB641C56
:101B8000202CF6D3F748FFF76DFBF6481430FFF72B
:101B900069FBF4482830FFF765FBF2483C30FFF75B
:101BA00061FBF0485030FFF75DFBEF48ED494163C2
:101BB0001431816370BD70B5044601F043F9EA4DFC
:101BC000A868401CA860286810B1686938B10CE0AA
:101BD0002C60A868012808D1FFF7C8FF05E0286835
:101BE000E16AC06A884200D82C60686A401C68625A
:101BF000E06A01212A69814011432961D84900EB3B
:101C0000800001EB8000211DFFF73AFB01F034F961
:101C1000686900280CD02868E16AC06A884207D247
:101C2000D2494FF080500860BFF34F8FBFF36F8FE2
:101C300070BD2DE9F0478146DDE908580A9C0E4643
:101C40009A46206B521E00EB820020F007077807AF
:101C500005D040F22B32C6A1CCA001F0F5F900204E
:101C60002218315C82F83410315C11B1401C10280C
:101C7000F6D3002684F84360202D00D31F25E562AB
:101C8000201DFFF7FAFA04F11800FFF7F6FA2461B5
:101C9000C5F12000A0616462666484F84860524621
:101CA0004946384601F075F82060B8F1000F01D0C0
:101CB000C8F80040BDE8F0872DE9FF5F8146DDE907
:101CC0000E788A4616469B46B00000F090FF054607
:101CD00028000AD04C2000F08AFF04460CB125638E
:101CE00004E0284600F0EAFF00E000248CB1002068
:101CF000CDE90240CDE900785B4632465146484680
:101D0000FFF797FF2046FFF756FF012004B0BDE81C
:101D1000F09F4FF0FF30F9E79348416B09680029C5
:101D200005D0416BC968C9684968816270474FF046
:101D3000FF318162704710B50446206B00F0BEFF92
:101D40002046BDE8104000F0B9BF70B5044601F070
:101D500079F8854D04B92C68201DFFF7B5FA58B9FC
:101D6000E06A7F4A00EB800152F8211021B901217D
:101D70008140286988432861A06A18B104F11800DD
:101D8000FFF7A2FA686A401C68622868844208D19A
:101D90007448211D3C30FFF773FA6868401C686086
:101DA00007E0A868401EA8602046FFF7C4FFFFF7C1
:101DB000B3FF01F061F86869002812D028688442F6
:101DC0000FD1286B28B140F2654269A16FA001F0E4
:101DD0003BF966494FF080500860BFF34F8FBFF367
:101DE0006F8F70BD2DE9F04100265F4F386B0028E2
:101DF00008D0B869401CB861F86900B101263046C6
:101E0000BDE8F081FD686D1CFD608DB9786B0068E0
:101E100028B140F6D91256A15CA001F015F9786BF3
:101E2000B96B7963B863386A401C3862FFF774FF96
:101E3000B86ADFF82C8185420DD3786B006838B121
:101E4000786BC068C468606885420ED2B86202E0F0
:101E50004FF0FF30B8623868C06A00EB800058F875
:101E600020000128C8D90126C6E7201DFFF72CFA5B
:101E7000A06A18B104F11800FFF726FAE06A012100
:101E80003A6981401143396100EB800008EB800022
:101E9000211DFFF7F5F9E06A3968C96A8842CCD399
:101EA0000126CAE72DE9F041002400272E4D286BBA
:101EB000002805D14FF4FD622DA134A001F0C4F833
:101EC00000F0C0FF286B401E2863286BF0BBA86899
:101ED000E0B3DFF89080012608F128081DE0D8F86B
:101EE0000C00C46804F11800FFF7EEF9201DFFF79D
:101EF000EBF9E06A2A6906FA00F1114329611849F1
:101F000000EB800001EB8000211DFFF7B9F9E06ACA
:101F10002968C96A884200D3EE61D8F80000002819
:101F2000DDD10CB1FFF7F8FEAC6944B1FFF75AFF01
:101F300000B1EE61641E002CF8D10020A861E869B0
:101F400020B1012709493807086000E003E0BFF32A
:101F50004F8FBFF36F8F00F08FFF384650E70000C0
:101F6000EC0000206C0300203800002004ED00E0AD
:101F70002E2E5C2E2E5C4672656552544F535C7358
:101F800072635C7461736B732E6300004572726FD1
:101F9000723A25732C25640D0A0000002DE9F041EA
:101FA00004460F46FE4EF5683068001DFFF78CF9B9
:101FB00038B9306890F82C1001208840316981438D
:101FC0003161601C07D137B13168BDE8F041091DAE
:101FD000F448FFF755B92C4430684460AC4206D24F
:101FE0003168B06B091DBDE8F041FFF755B93168A4
:101FF000706B091DFFF750F9B06A844200D2B462D9
:10200000FEE6E748016B491C016370472DE9F0418A
:1020100005460E460024002D07D140F27942AFF26A
:10202000B001AFF2980001F00FF83EB940F27A42E9
:10203000AFF2C401AFF2AC0001F006F8D84F386B34
:1020400038B140F27B42AFF2D801AFF2C00000F0ED
:10205000FBFFFFF7D6FFFA682B689919934205D961
:102060008B4208D9914206D9012404E08B4201D861
:10207000914200D9012429601CB1881A0021FFF780
:102080008DFFFFF70FFF002807D1C7494FF08050A1
:102090000860BFF34F8FBFF36F8FB1E610B50446F2
:1020A0000020002C12D0BE48006B38B140F2CF4265
:1020B000AFF24411AFF22C1000F0C6FFFFF7A1FF02
:1020C00000212046FFF76AFFFFF7ECFE002807D14A
:1020D000B5494FF080500860BFF34F8FBFF36F8F4B
:1020E00010BD70B50546002D07D140F2FB42AFF29E
:1020F0008011AFF2681000F0A7FFA94E306885424A
:1021000001D1002070BD00F09DFE6C6900F0B4FEAE
:10211000706B844202D0B06B844201D1022070BD4A
:10212000A048844205D1A86A08B1022070BD0320EE
:1021300070BD9C481438844202D00CB1012070BD9F
:10214000042070BD10B5044600F07CFE0CB9944824
:102150000468E46A00F090FE204610BD10B5044605
:1021600000F0B1FE5020EFF3118180F31188BFF32E
:102170004F8FBFF36F8F0CB989480468E06A81F311
:10218000118810BD2DE9F04104460D460026202D92
:1021900007D34FF4B062AFF22821AFF2102000F065
:1021A00053FF202D00D31F2500F04CFE7C4F04B9B7
:1021B0003C68D4F82C80A8453CD0454508D93868FF
:1021C000844209D03868C06AA84205D8012603E0D5
:1021D0003868844200D10126E562A069002802DB4C
:1021E000C5F12000A061714D08EB8801606905EB25
:1021F0008101884215D1201DFFF766F8012120B921
:102200003A6901FA08F082433A61E06A3A6981402A
:102210001143396100EB800005EB8000211DFFF7C1
:102220002FF83EB160494FF080500860BFF34F8FE8
:10223000BFF36F8FBDE8F04100F01EBE70B5584D82
:10224000286B002802D00120E86170BD0020E86101
:102250002869B0FA80F0C0F11F00544E00EB8004F2
:1022600056F8240038B940F6F622AFF2FC21AFF25E
:10227000E42000F0E9FE06EB840041684968416013
:1022800000F10802914201D1496841604068C0688C
:10229000286070BD70B5044600F0D4FD404D04B90F
:1022A0002C68201DFFF710F858B9E06A3F4A00EB90
:1022B000800152F8211021B9012181402869884309
:1022C0002861A06A18B104F11800FEF7FDFF211D76
:1022D0003448FEF7D5FF00F0CFFD686928B100F063
:1022E000B1FDFFF719FD00F0C7FD2868844213D146
:1022F000686990B1286B38B140F25762AFF2903103
:10230000AFF2783000F0A0FE27494FF0805008600F
:10231000BFF34F8FBFF36F8F70BD2248A96800686D
:10232000884202D10020286070BDBDE8704085E77A
:1023300070B500250446002807D140F28162AFF253
:10234000D031AFF2B83000F07FFE164960698842A4
:1023500005D1A06A2839884201D000B90125284654
:1023600070BD70B50446002807D140F2AB62AFF2F1
:102370000041AFF2E83000F067FE002C34D0084D89
:102380002868844230D000F05DFD2046FFF7D0FF82
:1023900030B3201DFEF798FFE06A0121814007E07D
:1023A00038000020BC03002004ED00E0EC00002019
:1023B0002A6911432961F94900EB800001EB800093
:1023C000211DFEF75DFFE06A2968C96A884207D3CC
:1023D000F3494FF080500860BFF34F8FBFF36F8F0A
:1023E000BDE8704000F048BD70BD2DE9F041002609
:1023F0000446002807D140F2E262AFF28C41AFF20E
:10240000744000F021FE00F05EFD5020EFF31185D6
:1024100080F31188BFF34F8FBFF36F8F2046FFF714
:1024200087FF38B1DF4F386B40B104F11801DE4847
:10243000FEF726FF85F311883046E1E4E06A39684B
:10244000C96A884200D30126201DFEF73DFFE06ADD
:1024500001213A69814011433961D04900EB800084
:1024600001EB8000211DFEF70BFFE3E770B5CE4EB8
:10247000CC4D14361CE0FFF7C4FD306820B10024B9
:10248000FFF710FDA4B901E00124F9E700F0DAFC40
:10249000F068C468201DFEF717FFA868401EA860FA
:1024A0006868401E686000F0E7FC2046FFF743FCC8
:1024B00068680028DFD170BDB84E4FF08054B84D29
:1024C000FFF7D4FF30680128FAD92C60BFF34F8F93
:1024D000BFF36F8FF4E71CB5B24800242C30CDE970
:1024E000004023468022B1A1B248FFF7E5FB012856
:1024F0000CD0401C1CD140F28472AFF28C51AFF270
:10250000745002B0BDE8104000F09EBD502080F332
:102510001188BFF34F8FBFF36F8FA2484FF0FF3189
:10252000816201214161C460BDE81C4000F04ABCE9
:102530001CBD502080F31188BFF34F8FBFF36F8F06
:1025400098490020486100F071BC9648C068704707
:1025500010B500F0B8FC9348C06810BD9148806881
:10256000704710B5002802D004461CB10AE08D481F
:102570000468FAE740F68C02AFF20C61AFF2F45057
:1025800000F062FD04F1340010BD70B504460D4644
:10259000002C07D140F60632AFF22C61AFF2146086
:1025A00000F052FD7F48016820461831FEF774FEA6
:1025B0002846BDE870400121F0E42DE9F0410546D0
:1025C0000E461746002D07D140F61732AFF2606174
:1025D000AFF2486000F038FD724C206B38B940F61D
:1025E0001B32AFF27461AFF25C6000F02DFD216828
:1025F00046F000408861216828461831FEF740FE09
:102600003846BDE8F0410121C8E42DE9F041C06839
:10261000C468002C07D140F66132AFF2AC61AFF272
:10262000946000F011FD04F118000746FEF74CFE1F
:102630005C4D2A6B01265AB139465B48FEF720FEF5
:10264000E06A2968C96A884214D90120EE6185E4EC
:10265000201DFEF739FEE06A2A6906FA00F11143EF
:1026600029614E4900EB800001EB8000211DFEF73F
:1026700007FEE5E7002071E470B506460C46494DBB
:10268000286B002807D140F69932AFF21C71AFF2E7
:10269000047000F0D9FC44F000403060F4683CB9AC
:1026A00040F6A132AFF23871AFF2207000F0CCFCEE
:1026B0003046FEF709FE201DFEF706FEE06A012601
:1026C0002A6906FA00F111432961344900EB8000C0
:1026D00001EB8000211DFEF7D3FDE06A2968C96A7D
:1026E000884202D90120EE6170BD002070BD10B596
:1026F0000446002C07D140F6C132AFF28C71AFF224
:10270000747000F0A1FC2748016A2160C068606015
:1027100010BD70B504460D46002C07D140F6CB32F3
:10272000AFF2B471AFF29C7000F08EFC3DB940F690
:10273000CC32AFF2C471AFF2AC7000F085FC00F0A7
:1027400081FB184AD06829684B1C08D02368126A9C
:10275000934206D06268824203D801240DE000242F
:102760000BE06268801A884206D2081A2860204668
:10277000FFF7BDFF002400E0012400F07DFB2046B0
:1027800070BD08490120C8617047064841690029A9
:1027900012D0006B90B1002070470000EC000020C8
:1027A00004ED00E0380000209403002049444C452B
:1027B00000000000B92400080120EDE70220EBE74B
:1027C000E249086880690A680968D26AC2F1200291
:1027D0008A61E1E770B506460C4600F033FBDB4D3D
:1027E0002868406C80B92A68012082F848005CB1F2
:1027F00001212046FFF7D2FBD5494FF080500860F9
:10280000BFF34F8FBFF36F8F00F036FB00F01AFB62
:102810002868446C002034B116B12968486402E08D
:102820002A68611E5164296881F8480000F024FB81
:10283000204670BD2DE9F04781460F461646984662
:1028400000F000FBC14D286890F84800022817D01E
:102850002C68606C20EA090060642968012081F816
:102860004800B8F1000F0BD001214046FFF796FB5E
:10287000B7494FF080500860BFF34F8FBFF36F8FA1
:1028800000F0FAFA00F0DEFA16B12868406C306009
:10289000286890F8480001280DD02868416CB94399
:1028A000416401242968002081F8480000F0E4FA1E
:1028B0002046BDE8F0870024F4E72DE9F041044606
:1028C0000D4690461F460126002C07D141F2FD021D
:1028D000AFF66411AFF64C1000F0B6FB00F0B2FAA0
:1028E0000FB1606C386094F84800022184F84810F9
:1028F000B8F1050F13D2DFE808F01203070B0D0043
:10290000616C294361640AE0616C491C616406E002
:10291000656404E0022801D0656400E00026012817
:1029200028D1201DFEF7D0FC884DE06A01212A69DC
:10293000814011432961874900EB800001EB800051
:10294000211DFEF79DFCA06A38B141F23512AFF6A9
:10295000E011AFF6C81000F077FBE06A2968C96A99
:10296000884207D97A494FF080500860BFF34F8FF3
:10297000BFF36F8F00F080FA30465EE52DE9F04737
:102980000446DDF820800D4691469A460127002C2A
:1029900007D141F26812AFF62821AFF6102000F0FF
:1029A00053FB00F090FA5020EFF3118680F311886A
:1029B000BFF34F8FBFF36F8FBAF1000F02D0606C7F
:1029C000CAF8000094F84800022184F84810B9F1D0
:1029D000050F13D2DFE809F01203070B0D00616C3D
:1029E000294361640AE0616C491C616406E0656426
:1029F00004E0022801D0656400E00027012832D1FC
:102A0000A06A38B141F2AF12AFF69C21AFF6842034
:102A100000F01AFB4D4D286B4FF0010978B104F11D
:102A200018014D48FEF72CFCE06A2968C96A884203
:102A300019D9B8F1000F14D0C8F8009013E0201D88
:102A4000FEF742FCE06A2A6909FA00F111432961A4
:102A500000EB80013F4800EB8100211DFEF710FCD8
:102A6000E2E7C5F81C9086F31188384621E72DE986
:102A7000F04104468846002C07D141F2E312AFF63C
:102A80001031AFF6F82000F0DFFA00F01CFA502009
:102A9000EFF3118780F31188BFF34F8FBFF36F8F70
:102AA00094F84800022184F84810616C491C616464
:102AB000012830D1A06A38B141F20922AFF6503175
:102AC000AFF6383000F0C0FA204D286B012678B1FF
:102AD00004F118012048FEF7D3FBE06A2968C96AAF
:102AE000884218D9B8F1000F14D0C8F8006012E07D
:102AF000201DFEF7E9FBE06A2A6906FA00F111439E
:102B00002961144900EB800001EB8000211DFEF7D4
:102B1000B7FBE2E7EE6187F311888EE410B5002879
:102B20000BD0044600F08EF994F84800022807D034
:102B3000002400F0A1F9204610BD04480468F1E724
:102B4000002084F848000124F3E70000380000204A
:102B500004ED00E0EC0000209403002030B574493F
:102B600000E011460A688242FBD34B685C1884423D
:102B700003D140681844486008460D68446823182B
:102B8000AB420DD16A4B103B1B689A4206D052688B
:102B9000224442600A681268026002E0036000E0BA
:102BA0000260814200D0086030BD4FF4104161489E
:102BB000420706D0C01D20F007005E49411AC1F54A
:102BC00010415B4A1060002353600144083921F032
:102BD0000701103A11604B600B600B1A43600160F3
:102BE0004068906050604FF00040D06070472DE921
:102BF000F04105460026FFF704FA4D4F103F3868B4
:102C000008B9FFF7D2FFF86805424AD175B1083517
:102C100068070BD005F00700C0F1080005446807FD
:102C200004D0BF2244A14EA000F00EFA002D38D0EF
:102C30007868854235D83E490846046801E0214657
:102C400004466068A84202D220680028F7D138689C
:102C5000844226D00E680836206808606068401BF1
:102C6000102811D904EB05085FEA487004D0EC2263
:102C700031A13BA000F0E8F96068401BC8F80400EF
:102C800065604046FFF76AFF61687868401A7860BF
:102C9000BA68904200D2B860F868014361600020D1
:102CA0002060FFF7FFF8700705D04FF4967222A15D
:102CB0002BA000F0C9F93046BDE8F08170B50028BE
:102CC0002BD0083804461A4D6068103DE968084268
:102CD00005D14FF4A07218A121A000F0B5F9206829
:102CE00028B140F2411214A11DA000F0ADF96068B6
:102CF000E968084211D02268002A0ED1884360603A
:102D0000FFF77FF960686968084468602046FFF74C
:102D100025FFBDE87040FFF7C5B870BD0448103806
:102D2000406870470248103880687047704700005C
:102D300084000020D00300202E2E5C2E2E5C4672D4
:102D4000656552544F535C706F72745C4D656D4D88
:102D5000616E675C686561705F342E63000000001F
:102D60004572726F723A25732C25640D0A000000BB
:102D700067484068401C04D0F42266A16FA000F0B0
:102D800063F9502080F31188BFF34F8FBFF36F8F2B
:102D9000FEE720384FF08073C36121F001018161AB
:102DA0006A49416140F82029704769484FF47A71B7
:102DB0000068B0FBF1F14FF0E020491E41610721AE
:102DC000016170471CB5634908780190FF200870C5
:102DD000087800909DF800004D4A00F050001070F7
:102DE0000720906006E09068401E90609DF800000B
:102DF000400000909DF800000006F4D4107A000214
:102E000000F4E0609060019808705348016841F454
:102E100070010160016841F070410160FFF7C5FF7A
:102E200000205060FDF7A0F900201CBD3848406824
:102E3000B0F57A7F05D04FF4B57236A13FA000F00F
:102E400003B97047502080F31188BFF34F8FBFF351
:102E50006F8F2F494868401C486001280BD13E48BD
:102E60001C38006810F0FF0F05D04FF4BD7229A187
:102E700032A000F0E9B8704710B5254C6068002812
:102E800005D140F2811223A12CA000F0DDF860688A
:102E9000401E6060002801D180F3118810BD10B57C
:102EA000502080F31188BFF34F8FBFF36F8FFEF771
:102EB00099FF20B128494FF080501C39086000204C
:102EC00080F3118810BD10B5FDF784F9104C10285F
:102ED0000CD300F1E02090F8F0032178884205D26D
:102EE0004FF42A720BA115A000F0AEF81A4814385E
:102EF0000068A16800F4E060884207D9BDE810408E
:102F00004FF42E7203A10DA000F09EB810BD00007A
:102F10008C0000202E2E5C2E2E5C4672656552546D
:102F20004F535C706F72745C525644535C41524D07
:102F30005F434D335C706F72742E63004572726F25
:102F4000723A25732C25640D0A000000712D0008CB
:102F50000000002000E400E020ED00E040EA010372
:102F60009B0703D009E008C9121F08C0042AFAD23F
:102F700003E011F8013B00F8013B521EF9D2704703
:102F80002DE9F05F0546002092469B46884606469E
:102F9000814640241BE0284641464746224600F031
:102FA00042F853465A46C01A914110D3114618466A
:102FB000224600F029F82D1A67EB01084F462246F9
:102FC0000120002100F020F817EB00094E41201EDF
:102FD000A4F10104DFDC484631462A464346BDE8F9
:102FE000F09F0000064C074D06E0E06840F001034A
:102FF00094E8070098471034AC42F6D3FDF79CF8EC
:103000004833000868330008202A04DB203A00FA1D
:1030100002F1002070479140C2F1200320FA03F32F
:10302000194390407047202A04DB203A21FA02F02D
:103030000021704721FA02F3D040C2F120029140F2
:1030400008431946704700000FB4054B10B503A99B
:10305000044A029800F018F810BC5DF814FB000058
:10306000C51100089800002002E008C8121F08C11E
:10307000002AFAD170477047002001E001C1121FF9
:10308000002AFBD1704700002DE9FF4F8DB09B4611
:103090000F460446002606E025280BD05A460F9915
:1030A0009047641C761C20780028F5D111B030467A
:1030B000BDE8F08F0025A8460122984900E00543AD
:1030C00014F8013F203B02FA03F00842F7D12078C0
:1030D0002E2817D114F8010F45F004052A280ED028
:1030E0006FF02F022078A0F1300109290AD808EBEF
:1030F000880102EB410100EB0108641CF2E757F87C
:10310000048B641C20786C280DD004DC4C2812D071
:103110006A2811D104E074280DD07A280CD10AE075
:1031200045F4001507E0617845F48015814202D12D
:10313000641C05F58015641C2278692A45D008DCDA
:10314000002AB3D0582A69D0632A10D0642A08D143
:103150003BE0702A67D0732A13D0752A5CD0782A96
:103160005CD010465A460F999047761CD3E017F86A
:10317000040B8DF8000000208DF80100E9460120C5
:1031800003E057F8049B4FF0FF3069074FF000054C
:1031900001D40AE06D1C45450DDA8542FADB19F8C9
:1031A00005100029F6D106E06D1C8542FCDB19F8FC
:1031B00005100029F8D12E4404E019F8010B5A46F5
:1031C0000F9990476D1EF8D2A5E00A200021CDE9A5
:1031D0000801C5F3025002280DD001CFC117031E0C
:1031E00071F100030DDA4FF0000CD0EB0C006CEB2A
:1031F00001012D2308E0FF1D27F00707F7E8020172
:10320000EDE72B0504D52B238DF8283001233BE077
:10321000EB0739D02023F7E70A2000E01020002137
:10322000CDE9080107E01020002145F00405CDE9B3
:1032300008014FF00808C5F3025002280FD001CF53
:1032400000214FF0000A2B071FD5702A0DD0DDE9B1
:1032500008C38CF0100C5CEA030C0CD015E0FF1DC9
:1032600027F00707F7E80201EBE740228DF8282056
:103270004FF0010A0BE050EA010306D030238DF82D
:1032800028308DF8292002239A46582A04D024A2F7
:103290000DF120090B9209E026A2F9E7DDE90823E8
:1032A000FFF76EFE0B9B9B5C09F8013D50EA0102A3
:1032B000F4D1ADEB090020300890680701D44FF03D
:1032C00001080899884502DDA8EB010000E0002014
:1032D0008046002506E00AA85A46405D0F999047AF
:1032E0006D1C761C5545F6DB04E030205A460F99DC
:1032F0009047761CB8F10001A8F10108F5DC05E063
:1033000019F8010B5A460F999047761C0899481EE8
:1033100008900029F4DC641CC5E6000009280100BF
:10332000303132333435363738396162636465663B
:1033300000000000303132333435363738394142FD
:1033400043444546000000006833000800000020A8
:103350009C00000068300008043400089C00002035
:10336000349700007830000800A24A0400000000F2
:103370000000000001020304060708090204060811
:10338000000000000102030401020304060708090B
:10339000000000000000000000000000000000002D
:1033A000000000000000000000000000000000001D
:1033B000000000000000000000000000000000000D
:1033C00000000000000000000000000000000000FD
:1033D00000000000000000000000000000000000ED
:1033E00000000000000000000000000000000000DD
:1033F0000000000000000000AAAAAAAA0000000025
:0434000000000000C8
:0400000508000131BD
:00000001FF
