:020000040800F2
:10000000A8A20020DD010008ED0E0008EF0E000898
:10001000F10E0008F30E0008F50E000800000000C5
:100020000000000000000000000000004501000882
:10003000F70E00080000000089010008F90E000812
:10004000F7010008F7010008F7010008F7010008B0
:10005000F7010008F7010008F7010008F7010008A0
:10006000F7010008F7010008F7010008F701000890
:10007000F7010008F7010008F7010008F701000880
:10008000F7010008F7010008F7010008F701000870
:10009000F7010008F7010008F7010008F701000860
:1000A000F7010008F7010008F7010008F701000850
:1000B000F7010008F7010008F7010008F701000840
:1000C000F7010008F7010008F7010008F701000830
:1000D000F70100080D0F0008F7010008F7010008FC
:1000E000F7010008F7010008F7010008F701000810
:1000F000F7010008F7010008F7010008F701000800
:10010000F7010008F7010008F7010008F7010008EF
:10011000F7010008F7010008F7010008F7010008DF
:10012000F7010008F7010008F7010008F7010008CF
:10013000DFF80CD002F078FA00480047F90D00080B
:10014000A8A20020224B19680868B0E8F00F80F3DD
:100150000988BFF36F8F4FF0000080F311884EF0D5
:100160000D0E70470000000006480068006880F32C
:10017000088862B661B6BFF34F8FBFF36F8F00DFA1
:1001800000BF00BF08ED00E0EFF30980BFF36F8F01
:100190000F4B1A6820E9F00F106008B54FF05000BF
:1001A00080F31188BFF34F8FBFF36F8F01F082FB95
:1001B0004FF0000080F31188BDE808401968086816
:1001C000B0E8F00F80F30988BFF36F8F704700BF6E
:1001D00030000020EFF3058070470000064880479C
:1001E00006480047FEE7FEE7FEE7FEE7FEE7FEE71C
:1001F000FEE7FEE7FEE7FEE7A9020008310100087E
:100200000CB50022019200925248016841F48031FD
:1002100001604FF4A063016801F40031009101997D
:10022000491C0191009911B901999942F3D10168D2
:10023000890302D50121009100E000920099012973
:1002400030D145490A6842F010020A600A6822F07B
:1002500003020A600A6842F002020A6041684160D3
:1002600041684160416841F480614160416821F426
:100270007C114160416841F4E8114160016841F03E
:100280008071016001688901FCD5416821F003019A
:100290004160416841F0020141604168C1F3810160
:1002A0000229FAD10CBDABE710B52A48016841F02C
:1002B000010101604168294A114041600168284AF2
:1002C00011400160016821F480210160416821F43E
:1002D000FE0141604FF41F018160FFF7E4FF2149F7
:1002E0004FF00060086010BD10B51A4A506800F069
:1002F0000C011D4B1D4800290ED004290ED00829E1
:100300000ED003605168194AC1F30311121D515CEC
:100310000268CA40026010BD0360F3E70360F1E7C2
:10032000516801F47011536803F48033022404EB24
:10033000914133B153689B0307D50D4B594301607D
:10034000E0E70B4B59430160DCE7074B5943016081
:10035000D8E7000000100240002002400000FFF833
:10036000FFFFF6FE08ED00E000127A00000000201A
:1003700000093D002A4908432A490860704770B5C2
:100380000F23C27801260178002A1ED0254A126860
:1003900002F4E062C2F5E062120AC2F10404D34042
:1003A0004578A54082781A402A43120101F1E021E4
:1003B00081F80024007800F01F018E404009800081
:1003C00000F1E020C0F8006170BD01F01F00864020
:1003D0004809800000F1E020C0F8806170BD124A39
:1003E000114001430F48001F016070470D4A121D64
:1003F000002903D0116801431160704711688143DF
:10040000116070474FF0E021042804D0086920F003
:10041000040008617047086940F0040008617047F3
:100420000000FA050CED00E080FFFF1F10B59C49AD
:10043000884209D10121042000F07DFA0021BDE8A5
:100440001040042000F077BA9649884209D1012172
:10045000082000F070FA0021BDE81040082000F0EC
:100460006ABA9149884209D10121102000F063FA4B
:100470000021BDE81040102000F05DBA8B49884291
:1004800009D10121202000F056FA0021BDE81040DA
:10049000202000F050BA8649884209D1012140202D
:1004A00000F049FA0021BDE81040402000F043BAB6
:1004B0008049884209D10121802000F03CFA0021C6
:1004C000BDE81040802000F036BA7B4988420AD14E
:1004D00084150121204600F02EFA2046BDE8104088
:1004E000002100F028BA10BD10B50121084600F027
:1004F00022FA0021BDE81040012000F01CBA2DE9CD
:10050000F0410022CC7804F00F03E40601D58C788A
:1005100023430C784FF00F0714F0FF0F4FF0010C3E
:100520001CD005680CFA02F40E882640A64211D1B0
:10053000960007FA06F825EA080503FA06F848EADD
:100540000505CE78282E02D0482E02D002E0446164
:1005500000E00461521C082AE4D305600A88FF2ADF
:100560001ED94568002202F108060CFA06F40E882E
:100570002640A64210D1960007FA06F825EA08059B
:1005800003FA06F848EA0505CE78282E00D1446122
:10059000CE78482E00D10461521C082AE3D345606E
:1005A000BDE8F0814FF6FF710180022181700421C6
:1005B000C17070470246002092680A4200D00120B4
:1005C0007047806880B2704702460020D2680A42B5
:1005D00000D001207047C06880B270470161704749
:1005E00041617047002A01D0016170474161704745
:1005F000C160704741F480328261816182618169AA
:100600008069704710B52D4B1A684FF680742240F0
:1006100042EA00100843186010BD2949C8617047BC
:10062000F0B5264C002801DAE36900E06368C0F306
:100630000346420D120185B2C0F301579540032FC6
:1006400007D0C2020CD50322B240934343F070623C
:1006500009E023F07062636823F07063636002E076
:10066000AB4343F0706201B12A43002801DAE26132
:10067000F0BD6260F0BD10B58A07120F0F239340E2
:1006800021F003040D4921448C689C438C608B68E5
:10069000904003438B6010BD0949DC31086070470E
:1006A00000080140000C014000100140001401400E
:1006B00000180140001C01400020014000000140E2
:1006C00000002042B448016841F001010160416826
:1006D000B24A114041600168B14A114001600168AD
:1006E00021F480210160416821F4FE0141604FF452
:1006F0001F0181607047A8490A6822F480320A60AD
:100700000A6822F480220A60B0F5803F07D0B0F575
:10071000802F03D1086840F4A02008607047086863
:1007200040F48030086070470346002059099A4A17
:1007300001290AD002290AD0516A03F01F020123BD
:1007400093400B4200D0012070471168F5E7116A11
:10075000F3E718B5002000904FF4A0643120FFF7B4
:10076000E3FF0099491C00910099A14201D00028A3
:10077000F4D03120FFF7D8FF08B1012018BD0020C8
:1007800018BD854A116821F0F80141EAC0001060E7
:1007900070478449086070477F4B5A6822F47C1286
:1007A00008431043586070477E49086670477A4A8C
:1007B000516821F003010143516070477648406859
:1007C00000F00C007047744A516821F0F0010143B9
:1007D00051607047704A516821F4E06101435160F3
:1007E00070476D4A516821F4605141EAC000506081
:1007F0007047694A002903D0517A0143517270470A
:10080000517A8143517270476649D8310860704708
:10081000614A516821F440410143516070475E498B
:10082000002220310A7001F82029012805D004286F
:1008300002D1052081F820007047012081F82000B6
:10084000704759490860704753490A6A02430A626F
:100850007047554944390860704710B54E4A516891
:1008600001F00C01514B002927D0042927D0082979
:1008700027D00360516801F0F00109094C4B5C5C22
:100880000168E1404160546804F4E064240A1C5D9E
:1008900021FA04F48460546804F46054E40A1B5D93
:1008A000D940C160526802F44042920B404B1B1F7A
:1008B0009A5CB1FBF2F1016110BD0360DAE70360FD
:1008C000D8E7516801F47011536803F480330224AF
:1008D00004EB914133B153689B0307D5354B594322
:1008E0000160C7E7334B59430160C3E72F4B5943BE
:1008F0000160BFE7284A002903D0516901435161D3
:1009000070475169814351617047234A002903D0E0
:100910009169014391617047916981439161704789
:100920001D4A002903D0D1690143D1617047D169C3
:100930008143D1617047184A002903D0D16801432F
:10094000D1607047D1688143D1607047124A002955
:1009500003D011690143116170471169814311612D
:10096000704711494039086070470E49C8647047A4
:100970000949C87170470848416A41F08071416275
:10098000704701460020044A92680A4200D00120C4
:100990007047014988727047001002400000FFF85C
:1009A000FFFFF6FE000042428004424200127A003D
:1009B0001800002000093D0010B5E14988420AD125
:1009C00001218C032046FFF7B6FF2046BDE810400A
:1009D0000021FFF7B0BFDB4988420AD101214C0456
:1009E0002046FFF7B3FF2046BDE810400021FFF787
:1009F000ADBFD54988420AD101218C042046FFF7BA
:100A0000A5FF2046BDE810400021FFF79FBFCF495A
:100A100088420AD10121CC042046FFF797FF2046E7
:100A2000BDE810400021FFF791BFC94988420AD1B3
:100A300001210C052046FFF789FF2046BDE8104044
:100A40000021FFF783BF10BD30B585B004460D46C9
:100A5000208A4CF6FF710840E98801432182A08971
:100A60004EF6F3110840A9882A8911436A89024386
:100A70001143A181A08A4FF6FF410840A989014393
:100A8000A1826846FFF7E9FEAD48844201D1039890
:100A900000E00298A189090408D500EBC00101EB30
:100AA000001029684900B0FBF1F007E000EBC0013D
:100AB00001EB001029688900B0FBF1F06422B0FB63
:100AC000F2F109010B096FF018056B4300EB83008D
:100AD000A3891D044FF0320307D503EBC000B0FB20
:100AE000F2F000F00700084306E003EB0010B0FB53
:100AF000F2F000F00F000843208105B030BD4FF444
:100B00001651016000218180C18001810C22428147
:100B10008181704710B5038A4FF2FF0213400A88A3
:100B20004C8822438C88C9880C4322431A43028292
:100B300010BD0021018041808180C1807047002963
:100B400004D0818941F4005181817047818921F469
:100B500000518181704710B540F66A13C1F342130A
:100B600001F01F040121A140012B07D0022B07D067
:100B700014303AB102680A43026010BD0C30F8E745
:100B80001030F6E702688A43026010BD002A03D0E5
:100B9000828A0A4382827047828A8A4382827047AD
:100BA000028A22F00F020282028A0A4302827047FE
:100BB000828922F40062828182890A43828170479D
:100BC000002904D0818941F0020181817047818927
:100BD00021F0020181817047028A22F02002028204
:100BE000028A0A4302827047002904D0018A41F434
:100BF000804101827047018A21F48041018270475F
:100C0000C1F30801818070478088C0F308007047F5
:100C1000818941F0010181817047028BD2B2028348
:100C2000028B42EA012101837047028B02F47F426A
:100C30000283028B0A4302837047002904D0818A11
:100C400041F0200181827047818A21F02001818258
:100C50007047002904D0818A41F0100181827047D9
:100C6000818A21F0100181827047002904D0818A95
:100C700041F0080181827047818A21F00801818258
:100C80007047002904D0818941F400418181704777
:100C90008189C1F30E0181817047002904D0818AC6
:100CA00041F4006181827047818A21F40061818270
:100CB0007047828A22F004028282828A0A438282F8
:100CC0007047002904D0818A41F002018182704777
:100CD000818A21F002018182704702460020128839
:100CE0000A4200D0012070478A05C943018070473D
:100CF00070B5002440F66A12C1F3421301F01F05DB
:100D0000012606FA05F2012B0CD0022B0DD0838AA6
:100D10001340090A8E40008830400BB100B1012415
:100D2000204670BD83891340F3E7038A1340F0E740
:100D300040F66A120A0A01219140C94301807047B6
:100D4000003801400044004000480040004C004092
:100D50000050004010B54FF44070FFF70BFB00F05F
:100D6000D7F8BDE8104000F003B9304D20244FF40F
:100D7000FA772E1F2EA001F069FC2C60384600F097
:100D8000C8FC2EA001F062FC3460384600F0C1FCC3
:100D9000F0E72D4B0360A3F5C06008608020106071
:100DA0007047294B4C330360A3F24C4008604FF46A
:100DB0008070106070473EB501F094FB2348042218
:100DC000A0F51371CDE9002102900023802220A11B
:100DD000224800F063FA224C606018B121A001F0B3
:100DE00035FC02E026A001F031FC206800F0EAFAB0
:100DF000BDE83E4001F090BB0EB5FFF7ABFF27A06A
:100E000001F024FC114803224C38A0F58061CDE9A3
:100E100000210290002380222FA1334800F03EFAE7
:100E20000F49086008B100F093FEFEE7140C014082
:100E30004C45445F4F4E210D0A0000004C45445F75
:100E40004F4646210D0A00002C0B0020E004002034
:100E50004C45445F5461736B000000006B0D00084B
:100E6000280000204C45445F5461736B5F48616EFD
:100E7000646C65C8CECEF1B4B4BDA8B3C9B9A60040
:100E80004C45445F5461736B5F48616E646C65C828
:100E9000CECEF1B4B4BDA8CAA7B0DC00D5E2CAC7B3
:100EA000D2BBB8F6BBF9D3DA53544D3332463130A6
:100EB00033B5C44672656552544F53CFB5CDB3B503
:100EC000C4BEB2CCACB4B4BDA8C8CECEF1B5C4B229
:100ED000E2CAD4210D0A00004170705461736B4363
:100EE0007265617465000000B70D00087047FEE789
:100EF000FEE7FEE7FEE7704710B500F0A3FF01280C
:100F000003D0BDE8104001F01ABB10BD70470000CF
:100F100038B501210820FFF7F8FC2020ADF80000CB
:100F200010208DF8030003208DF802000F4C694655
:100F30002046FFF7E4FA0121ADF80010694620468B
:100F4000FFF7DDFA0221ADF8001069462046FFF7F1
:100F5000D6FA20212046FFF741FB01212046FFF76A
:100F60003DFB02212046FFF739FB38BD000C014054
:100F700010B586B001210420FFF7C7FC01218803CA
:100F8000FFF7C3FC4FF40070ADF8140018208DF883
:100F9000170003208DF81600494C05A92046FFF7DD
:100FA000AEFA2115ADF8141004218DF8171005A91B
:100FB0002046FFF7A4FA4FF4E13001900020ADF88D
:100FC0000800ADF80A00ADF80C00ADF810000C20D8
:100FD000ADF80E003B4C01A92046FFF735FD01217D
:100FE0002046FFF7ACFD06B010BD10B50446204604
:100FF000FFF706FE80212046FFF76FFE0028F9D09C
:1010000010BD2DE9F04107460D461646002405E0C7
:10101000295D3846FFF7E9FF641CE4B2B442F7D318
:1010200040213846FFF759FE0028F9D0BDE8F0818D
:1010300070B506460D4600243046295DFFF7D5FF02
:10104000641C285D0028F7D140213046FFF745FE9B
:101050000028F9D070BD70B50546080ACCB201462B
:101060002846FFF7CDFD80212846FFF736FE0028F1
:10107000F9D021462846FFF7C3FD80212846FFF717
:101080002CFE0028F9D070BD70B504460D4DE1B2BC
:101090002846FFF7B5FD80212846FFF71EFE0028F1
:1010A000F9D0204670BD10B5064C20212046FFF730
:1010B00014FE0028F9D02046BDE81040FFF7A4BD7B
:1010C000000801400038014000F1080141604FF084
:1010D000FF328260C1600161002101607047002120
:1010E0000161704742684A6093688B6093685960F9
:1010F000916008610168491C0160704730B50C6857
:10110000621C02D000F1080202E0026904E01A4603
:1011100053681D68A542FAD953684B6099608A608C
:10112000516008610168491C016030BD0169D0E966
:1011300001329A60D0E901235A604A68824201D1A3
:1011400082684A60002202610868401E0860704799
:1011500070B50024FE4D04EB840005EB8000FFF722
:10116000B3FF641C202CF6D3FA48FFF7ADFFF94813
:101170001430FFF7A9FFF7482830FFF7A5FFF5481F
:101180003C30FFF7A1FFF3485030FFF79DFFF248D6
:10119000F04941631431816370BD70B5044601F0BC
:1011A000A1F9ED4DA868401CA860286810B16869D5
:1011B00038B10CE02C60A868012808D1FFF7C8FFFF
:1011C00005E02868E16AC06A884200D82C60686A35
:1011D000401C6862E06A01212A698140114329614B
:1011E000DB4900EB800001EB8000211DFFF77AFF57
:1011F00001F092F9686900280CD02868E16AC06A99
:10120000884207D2D5494FF080500860BFF34F8F16
:10121000BFF36F8F70BD2DE9F0478146DDE90858B7
:101220000A9C0E469A46206B521E00EB820020F06C
:101230000707780705D040F22B32C9A1CFA001F0F3
:1012400005FA00202218315C82F83410315C11B1AB
:10125000401C1028F6D3002684F84360202D00D3CC
:101260001F25E562201DFFF73AFF04F11800FFF784
:1012700036FF2461C5F12000A0616462666484F8D1
:10128000486052464946384601F0D3F82060B8F12C
:10129000000F01D0C8F80040BDE8F0872DE9F04705
:1012A00086B00746DDE90E65109C884691469A4651
:1012B000002D05D140F25522A9A1B0A001F0C6F938
:1012C0002CB940F25622A6A1ACA001F0BFF9002033
:1012D0009CB195B12563022184F8491005A9CDE997
:1012E0000061CDE9024053464A4641463846FFF781
:1012F00092FF2046FFF751FF00E00590059806B0E9
:10130000CAE72DE9FF5F8146DDE90E788A46164679
:101310009B46B00000F0BBFF054628000AD04C20D9
:1013200000F0B5FF04460CB1256304E0284601F047
:1013300015F800E000249CB1002084F84900CDE9B4
:101340000240CDE900785B46324651464846FFF7F9
:1013500062FF2046FFF721FF012004B0BDE8F09FA7
:101360004FF0FF30F9E77C48416B0968002905D050
:10137000416BC968C9684968816270474FF0FF31A5
:101380008162704710B5044694F8490000280BD0DC
:10139000012811D0022814D0BDE8104040F629627F
:1013A0006FA176A001F052B9206B00F0D7FF204664
:1013B000BDE8104000F0D2BF2046BDE8104000F06C
:1013C000CDBF10BD70B5044601F08CF8624D04B974
:1013D0002C68201DFFF7AAFE58B9E06A5C4A00EBB2
:1013E000800152F8211021B90121814028698843E8
:1013F0002861A06A18B104F11800FFF797FE686A27
:10140000401C68622868844208D15248211D3C3043
:10141000FFF768FE6868401C686007E0A868401E27
:10142000A8602046FFF7AEFFFFF79DFF01F074F8BC
:101430006869002812D0286884420FD1286B28B12F
:1014400040F2654246A14DA001F000F943494FF03A
:1014500080500860BFF34F8FBFF36F8F70BD2DE9D1
:10146000F04100263C4F386B002808D0B869401C7A
:10147000B861F86900B101263046BDE8F081FD6829
:101480006D1CFD608DB9786B006828B140F6D912EB
:1014900033A13AA001F0DAF8786BB96B7963B863DD
:1014A000386A401C3862FFF75EFFB86ADFF8A08038
:1014B00085420DD3786B006838B1786BC068C4681A
:1014C000606885420ED2B86202E04FF0FF30B86229
:1014D0003868C06A00EB800058F820000128C8D99D
:1014E0000126C6E7201DFFF721FEA06A18B104F10E
:1014F0001800FFF71BFEE06A01213A6981401143A1
:10150000396100EB800008EB8000211DFFF7EAFD48
:10151000E06A3968C96A8842CCD30126CAE72DE956
:10152000F041002400270C4D286B002805D14FF412
:10153000FD620BA111A001F089F800F0D3FF286B28
:10154000401E2863286B10B9A86800B11EE05BE05C
:10155000C40B0020440E00203000002004ED00E009
:101560002E2E5C2E2E5C4672656552544F535C7372
:1015700072635C7461736B732E6300004572726FEB
:10158000723A25732C25640D0A000000DFF80484EC
:1015900001261DE0D8F80C00C46804F11800FFF71C
:1015A000C5FD201DFFF7C2FDE06A2A6906FA00F1B9
:1015B00011432961F84900EB800001EB8000211DF7
:1015C000FFF790FDE06A2968C96A884200D3EE619E
:1015D000D8F800000028DDD10CB1FFF7C4FEAC69DB
:1015E00044B1FFF73CFF00B1EE61641E002CF8D15E
:1015F0000020A861E86938B10127E8493807086088
:10160000BFF34F8FBFF36F8F00F086FF384634E78C
:101610002DE9F04104460F46E14EF5683068001DA3
:10162000FFF784FD38B9306890F82C10012088400D
:10163000316981433161601C08D13FB13168BDE837
:10164000F041D448091D2830FFF74CBD2C443068C8
:101650004460AC4206D23168B06B091DBDE8F04170
:10166000FFF74CBD3168706B091DFFF747FDB06A8D
:10167000844200D2B46200E7C948016B491C01638F
:1016800070472DE9F04105460E460024002D07D194
:1016900040F27942AFF23811AFF2201000F0D6FFDD
:1016A0003EB940F27A42AFF24811AFF2301000F08A
:1016B000CDFFBB4F386B38B140F27B42AFF26011C7
:1016C000AFF2481000F0C2FFFFF7D6FFFA682B68B0
:1016D0009919934205D98B4208D9914206D9012420
:1016E00004E08B4201D8914200D9012429601CB149
:1016F000881A0021FFF78CFFFFF711FF002807D1A0
:10170000A6494FF080500860BFF34F8FBFF36F8F33
:10171000B3E610B504460020002C12D0A048006BA0
:1017200038B140F2CF42AFF2C811AFF2B01000F0C2
:101730008DFFFFF7A1FF00212046FFF769FFFFF7AC
:10174000EEFE002807D195494FF080500860BFF3A6
:101750004F8FBFF36F8F10BD70B50546002D07D1B9
:1017600040F2FB42AFF20821AFF2F01000F06EFF42
:101770008B4E3068854201D1002070BD00F0B2FE72
:101780006C6900F0C9FE706B844202D0B06B844279
:1017900001D1022070BD7F482830844205D1A86A5B
:1017A00008B1022070BD032070BD7A481430844215
:1017B00002D00CB1012070BD042070BD10B50446EC
:1017C00000F090FE0CB976480468E46A00F0A4FECC
:1017D000204610BD10B5044600F0C5FE5020EFF3C2
:1017E000118180F31188BFF34F8FBFF36F8F0CB956
:1017F0006B480468E06A81F3118810BD2DE9F0415F
:1018000004460D460026202D07D34FF4B062AFF2F8
:10181000B021AFF2982000F019FF202D00D31F2532
:1018200000F060FE5E4F04B93C68D4F82C80A845F7
:101830003CD0454508D93868844209D03868C06A28
:10184000A84205D8012603E03868844200D1012669
:10185000E562A069002802DBC5F12000A0614E4DC1
:1018600008EB8801606905EB8101884215D1201DD4
:10187000FFF75CFC012120B93A6901FA08F08243C4
:101880003A61E06A3A6981401143396100EB8000B6
:1018900005EB8000211DFFF725FC3EB13F494FF0CD
:1018A00080500860BFF34F8FBFF36F8FBDE8F041EA
:1018B00000F032BE70B53A4D286B002802D00120EE
:1018C000E86170BD0020E8612869B0FA80F0C0F1DD
:1018D0001F00314E00EB800456F8240038B940F662
:1018E000F622AFF28431AFF26C3000F0AFFE06EBBF
:1018F000840041684968416000F10802914201D1C9
:10190000496841604068C068286070BD70B5044691
:1019100000F0E8FD224D04B92C68201DFFF706FCFD
:1019200058B9E06A1C4A00EB800152F8211021B935
:1019300001218140286988432861A06A18B104F117
:101940001800FFF7F3FB1348211D2830FFF7CAFBEF
:1019500000F0E2FD686928B100F0C4FDFFF703FD67
:1019600000F0DAFD2868844213D16869D0B1286B91
:1019700038B140F25762AFF21841AFF2004000F0C8
:1019800065FE06494FF080500860BFF34F8FBFF3EC
:101990006F8F70BD6C0E0020C40B002004ED00E0C2
:1019A00030000020F848A9680068884202D1002071
:1019B0002860EEE7BDE870407CE770B5002504467E
:1019C000002807D140F28162AFF26C41AFF254407F
:1019D00000F03CFEEC496069884205D1A06A2839D4
:1019E000884201D000B901252846D2E770B50446E7
:1019F000002807D140F2AB62AFF29C41AFF28440C5
:101A000000F024FE002CC4D0E04D28688442C0D0F1
:101A100000F068FD2046FFF7D0FFE8B1201DFFF77A
:101A200085FBE06A01212A69814011432961D84977
:101A300000EB800001EB8000211DFFF753FBE06A03
:101A40002968C96A884207D3D2494FF0805008609C
:101A5000BFF34F8FBFF36F8FBDE8704000F05CBDE8
:101A600097E72DE9F04100260446002807D140F20F
:101A7000E262AFF21451AFF2FC4000F0E7FD00F07B
:101A800072FD5020EFF3118580F31188BFF34F8F63
:101A9000BFF36F8F2046FFF790FF40B1BB4F386B0D
:101AA00048B1B94804F118012838FFF71BFB85F34A
:101AB00011883046E1E4E06A3968C96A884200D397
:101AC0000126201DFFF732FBE06A01213A698140BF
:101AD00011433961AE4900EB800001EB8000211D0C
:101AE000FFF700FBE3E770B5A74EA84D143E1CE0DE
:101AF000FFF7C2FD306820B10024FFF710FDA4B944
:101B000001E00124F9E700F0EDFCF068C468201D55
:101B1000FFF70CFBA868401EA8606868401E68605C
:101B200000F0FAFC2046FFF72DFC68680028DFD1A2
:101B30002FE7974E4FF08054964DFFF7D4FF306853
:101B40000128FAD92C60BFF34F8FBFF36F8FF4E7F2
:101B500010B586B000240594049403AA04A905A82E
:101B6000FFF717F9DDE90410CDE9004102900023E9
:101B700089A18B48039AFFF791FB8449C86208B199
:101B8000012000E0002001280CD0401C1CD140F2B4
:101B90008472AFF23461AFF21C6006B0BDE8104051
:101BA00000F054BD502080F31188BFF34F8FBFF376
:101BB0006F8F4FF0FF30886201204861CC6006B023
:101BC000BDE8104000F04EBC06B010BD502080F3C0
:101BD0001188BFF34F8FBFF36F8F6C4900204861AE
:101BE00000F074BC6948C068704710B500F0BBFCD9
:101BF0006648C06810BD65488068704710B5002809
:101C000002D004461CB10AE060480468FAE740F6D6
:101C10008C02AFF2B461AFF29C6000F017FD04F1EA
:101C2000340010BD70B504460D46002C07D140F6B7
:101C30000632AFF2D461AFF2BC6000F007FD53484A
:101C4000016820461831FFF759FA2846BDE8704070
:101C50000121DDE42DE9F04105460E461746002D31
:101C600007D140F61732AFF20871AFF2F06000F022
:101C7000EDFC464C206B38B940F61B32AFF22071B8
:101C8000AFF2087000F0E2FC216846F00040886185
:101C9000216828461831FFF725FA3846BDE8F0419B
:101CA0000121B5E42DE9F041C068C468002C07D1DA
:101CB00040F66132AFF25871AFF2407000F0C6FCEE
:101CC00004F118000746FFF731FA304D2A6B012660
:101CD00062B12D4839462838FFF704FAE06A2968CE
:101CE000C96A884214D90120EE6190E4201DFFF7F3
:101CF0001DFAE06A2A6906FA00F1114329612449B4
:101D000000EB800001EB8000211DFFF7EBF9E5E718
:101D100000207CE470B506460C461C4D286B00285C
:101D200007D140F69932AFF2C871AFF2B07000F04F
:101D30008DFC44F000403060F4683CB940F6A132BC
:101D4000AFF2E471AFF2CC7000F080FC3046FFF7E8
:101D5000EDF9201DFFF7EAF9E06A01262A6906FA83
:101D600000F1114329610A4900EB800001EB80007A
:101D7000211DFFF7B7F9E06A2968C96A884211D9BD
:101D80000120EE6105E60000940E002030000020E6
:101D9000C40B002004ED00E049444C450000000065
:101DA000331B00080020F4E510B50446002C07D1D1
:101DB00040F6C132AFF65801AFF6400000F046FCE5
:101DC000FB48016A2160C068606010BD70B50446C0
:101DD0000D46002C07D140F6CB32AFF67C01AFF6B2
:101DE000640000F033FC3DB940F6CC32AFF6900110
:101DF000AFF6780000F02AFC00F074FBEC4AD068E3
:101E000029684B1C08D02368126A934206D0626886
:101E1000824203D801240DE000240BE06268801A9E
:101E2000884206D2081A28602046FFF7BDFF00242A
:101E300000E0012400F070FB2046AAE5DC49012007
:101E4000C8617047DA484169002903D0006B18B1B6
:101E5000002070470120704702207047D44908686D
:101E600080690A680968D26AC2F120028A617047F3
:101E700070B506460C4600F035FBCD4D2868406C29
:101E800080B92A68012082F848005CB1012120460F
:101E9000FFF7BEFBC7494FF080500860BFF34F8F7C
:101EA000BFF36F8F00F038FB00F01CFB2868446C18
:101EB000002034B116B12968486402E02A68611E26
:101EC0005164296881F8480000F026FB204660E54F
:101ED0002DE9F04781460F461646984600F002FB72
:101EE000B34D286890F84800022817D02C68606C21
:101EF00020EA090060642968012081F84800B8F1EF
:101F0000000F0BD001214046FFF782FBA9494FF09B
:101F100080500860BFF34F8FBFF36F8F00F0FCFA63
:101F200000F0E0FA16B12868406C3060286890F83C
:101F3000480001280DD02868416CB9434164012450
:101F40002968002081F8480000F0E6FA2046BDE844
:101F5000F0870024F4E72DE9F04104460D46904651
:101F60001F460126002C07D141F2FD02AFF61021D9
:101F7000AFF6F81000F06AFB00F0B4FA0FB1606C35
:101F8000386094F84800022184F84810B8F1050F31
:101F900013D2DFE808F01203070B0D00616C294330
:101FA00061640AE0616C491C616406E0656404E0F8
:101FB000022801D0656400E00026012828D1201DF8
:101FC000FFF7B4F87A4DE06A01212A698140114394
:101FD0002961794900EB800001EB8000211DFFF7AA
:101FE00081F8A06A38B141F23512AFF68C21AFF614
:101FF000742000F02BFBE06A2968C96A884207D97F
:102000006C494FF080500860BFF34F8FBFF36F8F64
:1020100000F082FA30464DE52DE9F0470446DDF840
:1020200020800D4691469A460127002C07D141F2A7
:102030006812AFF6D421AFF6BC2000F007FB00F029
:1020400092FA5020EFF3118680F31188BFF34F8F7F
:10205000BFF36F8FBAF1000F02D0606CCAF80000B6
:1020600094F84800022184F84810B9F1050F13D202
:10207000DFE809F01203070B0D00616C294361646E
:102080000AE0616C491C616406E0656404E00228B2
:1020900001D0656400E00027012832D1A06A38B180
:1020A00041F2AF12AFF64831AFF6303000F0CEFA61
:1020B0003F4D286B4FF0010978B104F118013F48FA
:1020C000FFF710F8E06A2968C96A884219D9B8F19F
:1020D000000F14D0C8F8009013E0201DFFF726F879
:1020E000E06A2A6909FA00F11143296100EB8001D5
:1020F000314800EB8100211DFEF7F4FFE2E7C5F84F
:102100001C9086F31188384621E72DE9F0410446FA
:102110008846002C07D141F2E312AFF6BC31AFF68E
:10212000A43000F093FA00F01EFA5020EFF311876C
:1021300080F31188BFF34F8FBFF36F8F94F848007F
:10214000022184F84810616C491C6164012838D16F
:10215000A06A38B141F20922AFF6FC31AFF6E430A3
:1021600000F074FA124D286B012678B104F11801C1
:102170001248FEF7B7FFE06A2968C96A884220D989
:10218000B8F1000F1CD0C8F800601AE0201DFEF75F
:10219000CDFFE06A2A6906FA00F111432961064978
:1021A00000EB800001EB8000211DFEF79BFFE2E7C2
:1021B0003000002004ED00E0C40B00206C0E002075
:1021C000EE6187F3118875E410B500280BD0044642
:1021D00000F088F994F84800022807D0002400F0A5
:1021E0009BF9204610BD04480468F1E7002084F8FC
:1021F00048000124F3E700003000002030B57449A6
:1022000000E011460A688242FBD34B685C188442A6
:1022100003D140681844486008460D684468231894
:10222000AB420DD16A4B103B1B689A4206D05268F4
:10223000224442600A681268026002E0036000E023
:102240000260814200D0086030BD4FF41041614807
:10225000420706D0C01D20F007005E49411AC1F5B3
:1022600010415B4A1060002353600144083921F09B
:102270000701103A11604B600B600B1A436001605C
:102280004068906050604FF00040D06070472DE98A
:10229000F04105460026FFF7EFF94D4F103F386833
:1022A00008B9FFF7D2FFF86805424AD175B1083581
:1022B00068070BD005F00700C0F108000544680767
:1022C00004D0BF2244A14EA000F0C0F9002D38D0A8
:1022D0007868854235D83E490846046801E02146C1
:1022E00004466068A84202D220680028F7D1386806
:1022F000844226D00E680836206808606068401B5B
:10230000102811D904EB05085FEA487004D0EC22CC
:1023100031A13BA000F09AF96068401BC8F80400A6
:1023200065604046FFF76AFF61687868401A786028
:10233000BA68904200D2B860F8680143616000203A
:102340002060FFF7ECF8700705D04FF4967222A1D9
:102350002BA000F07BF93046BDE8F08170B5002875
:102360002BD0083804461A4D6068103DE9680842D1
:1023700005D14FF4A07218A121A000F067F92068E0
:1023800028B140F2411214A11DA000F05FF960686D
:10239000E968084211D02268002A0ED188436060A3
:1023A000FFF76AF960686968084468602046FFF7CB
:1023B00025FFBDE87040FFF7B2B870BD0448103883
:1023C00040687047024810388068704770470000C6
:1023D0007C000020A80E00202E2E5C2E2E5C467263
:1023E000656552544F535C706F72745C4D656D4DF2
:1023F000616E675C686561705F342E630000000089
:102400004572726F723A25732C25640D0A00000024
:1024100067484068401C04D0F42266A16FA000F019
:1024200015F9502080F31188BFF34F8FBFF36F8FE2
:10243000FEE720384FF08073C36121F00101816114
:102440006A49416140F82029704769484FF47A7120
:102450000068B0FBF1F14FF0E020491E4161072117
:10246000016170471CB5634908780190FF2008702E
:10247000087800909DF800004D4A00F05000107060
:102480000720906006E09068401E90609DF8000074
:10249000400000909DF800000006F4D4107A00027D
:1024A00000F4E0609060019808705348016841F4BE
:1024B00070010160016841F070410160FFF7C5FFE4
:1024C00000205060FDF750FE00201CBD38484068D9
:1024D000B0F57A7F05D04FF4B57236A13FA000F079
:1024E000B5B87047502080F31188BFF34F8FBFF30A
:1024F0006F8F2F494868401C486001280BD13E4827
:102500001C38006810F0FF0F05D04FF4BD7229A1F0
:1025100032A000F09BB8704710B5254C60680028C9
:1025200005D140F2811223A12CA000F08FF8606841
:10253000401E6060002801D180F3118810BD10B5E5
:10254000502080F31188BFF34F8FBFF36F8FFEF7DA
:1025500086FF20B128494FF080501C3908600020C8
:1025600080F3118810BD10B5FDF734FE104C102813
:102570000CD300F1E02090F8F0032178884205D2D6
:102580004FF42A720BA115A000F060F81A48143815
:102590000068A16800F4E060884207D9BDE81040F7
:1025A0004FF42E7203A10DA000F050B810BD000032
:1025B000840000202E2E5C2E2E5C467265655254DF
:1025C0004F535C706F72745C525644535C41524D71
:1025D0005F434D335C706F72742E63004572726F8F
:1025E000723A25732C25640D0A000000112400089E
:1025F0000000002000E400E020ED00E030B50B46D4
:10260000014600202022012409E021FA02F59D4222
:1026100005D303FA02F5491B04FA02F52844151EF6
:10262000A2F10102F1DC30BD064C074D06E0E06886
:1026300040F0010394E8070098471034AC42F6D309
:10264000FDF77AFD44280008642800080FB4054B04
:1026500010B503A9044A029800F018F810BC5DF800
:1026600014FB0000891000089000002002E008C858
:10267000121F08C1002AFAD170477047002001E0FC
:1026800001C1121F002AFBD1704700002DE9FF4F46
:102690008BB09A460F460546002606E025280BD04B
:1026A00052460D9990476D1C761C28780028F5D16C
:1026B0000FB03046BDE8F08F0024A04601226049EB
:1026C00000E0044315F8013F203B02FA03F0084202
:1026D000F7D128782E2817D115F8010F44F00404FB
:1026E0002A280ED06FF02F022878A0F13001092996
:1026F0000AD808EB880102EB410100EB01086D1CD0
:10270000F2E757F8048B6D1C287869283ED006DC68
:102710000028CDD063280BD0642804D136E073287C
:1027200010D075284BD052460D999047761C85E005
:1027300017F8040B8DF8000000208DF80100E94621
:10274000012003E057F8049B4FF0FF3061074FF082
:10275000000401D40AE0641C44450DDA8442FADB2B
:1027600019F804100029F6D106E0641C8442FCDB51
:1027700019F804100029F8D1264404E019F8010BD7
:1027800052460D999047641EF8D257E001CF4FF0A2
:102790000A0B002802DA40422D2102E0210504D56F
:1027A0002B218DF82410012103E0E10705D0202121
:1027B000F7E70DF1200908910CE00021F9E701CFBE
:1027C0004FF00A0BF9E75946FFF718FF01F1300205
:1027D00009F8012D0028F6D1ADEB090000F1200B1E
:1027E000600701D44FF00108D84502DDA8EB0B00CB
:1027F00000E000208046002406E009A85246005D63
:102800000D999047641C761C08988442F5DB04E01F
:10281000302052460D999047761CB8F10001A8F17E
:102820000108F5DC05E019F8010B52460D999047B7
:10283000761CBBF10001ABF1010BF4DC6D1C34E73D
:10284000092801006428000800000020940000000E
:102850006C260008F82800089400002014A200004C
:102860007C26000800A24A040000000000000000CE
:10287000010203040607080902040608000000001C
:102880000102030401020304060708090000000016
:102890000000000000000000000000000000000038
:1028A0000000000000000000000000000000000028
:1028B0000000000000000000000000000000000018
:1028C0000000000000000000000000000000000008
:1028D00000000000000000000000000000000000F8
:1028E000000000000000000000000000AAAAAAAA40
:0828F0000000000000000000E0
:0400000508000131BD
:00000001FF
